:020000040000FA
:100000000C9411020C9439020C9439020C945F1E6A
:100010000C945F1E0C945F1E0C9439020C943902F0
:100020000C9439020C9439020C9439020C94390264
:100030000C9439020C9439020C9439020C94390254
:100040000C94F61C0C9439020C94C41C0C949E1C49
:100050000C9439020C9439020C9439020C94390234
:100060000C94401D0C94390200407A10F35A00A001
:10007000724E18090010A5D4E80000E87648170071
:1000800000E40B54020000CA9A3B000000E1F505B1
:10009000000080969800000040420F000000A086FB
:1000A00001000000102700000000E803000000002D
:1000B0006400000000000A000000000001000000D1
:1000C00000002C76D888DC674F0823DFC1DFAE59EB
:1000D000E1B1B796E5E3E453C63AE651997696E87E
:1000E000E6C28426EB898C9B62ED407C6FFCEFBC02
:1000F0009C9F40F2BAA56FA5F490055A2AF75C932D
:100100006B6CF9676DC11BFCE0E40D47FEF520E662
:10011000B500D0ED902E0300943577050080841E45
:10012000080000204E0A000000C80C333333330FA0
:10013000986E12831141EF8D2114893BE65516CF3D
:10014000FEE6DB18D1844B381BF77C1D901DA4BB49
:10015000E424203284725E228100C9F124ECA1E5FE
:100160003D27005EBCE2613FDD83C29C7E20A3FD93
:100170001F41009D23BE46DB65F88C11AF32CA5784
:10018000E9747C3C3E5E2B3D3F2F5B5D3B2C2A227D
:100190005C000000000800020100000304070000EA
:1001A00000000000000000000000240027002A00DA
:1001B0005374617274696E6721004F4B0041540D96
:1001C0000A0041542B53415042523D312C310D0A0B
:1001D000002B53415042523A20312C310041542BD4
:1001E00053415042523D322C310D0A0041542B53A1
:1001F000415042523D332C312C2241504E222C2270
:100200002573220D0A0041542B53415042523D3375
:100210002C312C22436F6E74797065222C2247504A
:100220005253220D0A0041542B4353510D0A0041F1
:10023000542B4342430D0A002B435245473A20308A
:100240002C35002B435245473A20302C3100415485
:100250002B435245473F0D0A0041542B48545450FC
:10026000494E49540D0A00415426460D0A00415496
:100270002B434C42533D312C310D0A005245414431
:10028000494E47204C4F434154494F4E005245413F
:1002900044494E472054454D5045524154555245CE
:1002A000004D4541535552494E4720504800434167
:1002B0004C43554C4154494E472045430041542B33
:1002C00048545450504152413D22434F4E54454EA4
:1002D00054222C226170706C69636174696F6E2F97
:1002E0006A736F6E220D0A0041542B4854545053C8
:1002F000534C3D300D0A0041542B48545450535335
:100300004C3D310D0A0068747470733A2F2F004110
:10031000542B48545450504152413D2255524C2286
:100320002C222573220D0A0041542B48545450505E
:100330004152413D22434944222C310D0A0041548F
:100340002B48545450524541440D0A002C32585801
:100350002C0041542B48545450414354494F4E3D76
:10036000310A00444F574E4C4F41440041542B48F2
:10037000545450444154413D25642C25640D0A00D9
:100380004F4B0041542B53415042523D302C310DC4
:100390000A004F4B0041542B485454505445524D81
:1003A0000D0A004854545020646973636F6E6E6583
:1003B00063743A20004572726F72203A20004854EC
:1003C000545020504F53543A200048545450206306
:1003D0006F6E6E6563743A2000696E7465726E6547
:1003E0007400000000002300260029000000000027
:1003F000250028002B000404040404040404020261
:100400000202020203030303030301020408102093
:100410004080010204081020010204081020D71EA9
:10042000C12A11241FBECFEFD8E0DEBFCDBF27E029
:10043000A8E5B2E001C01D92A432B207E1F712E0D4
:10044000A0E0B1E0E4E5FAE602C005900D92A8351F
:10045000B107D9F712E0C0E1D2E004C02197FE0154
:100460000E94DB32CF30D107C9F70E94E0200C9404
:100470001D350C9400008091190790911A07892B63
:1004800059F1E0916F05F091700586E0EF3FF807B4
:1004900019F1309739F0A389B4899C9185898095A9
:1004A00089238C9380911D078E7F80931D07109266
:1004B0006E0510926D058FEF96E090937005809316
:1004C0006F05E0911207F091130780819091140756
:1004D000892B808381E0089580E0089508959091AC
:1004E0006A03809169032FEF3FEF981748F4E92FD3
:1004F000F0E0E75BFC4F208130E09F5F90936A0360
:10050000C901089590916A03809169032FEF3FEF2D
:10051000981748F4E92FF0E0E75BFC4F208130E0CA
:100520009F5F90936A03C9010895089508950895FF
:10053000AF92BF92CF92DF92EF92FF920F931F93F1
:10054000CF93DF936C017B018B01040F151FEB012F
:100550005E01AE18BF08C017D10759F06991D601E6
:10056000ED91FC910190F081E02DC6010995892B58
:1005700079F7C501DF91CF911F910F91FF90EF9017
:10058000DF90CF90BF90AF900895FC01538D448DC4
:10059000252F30E0842F90E0821B930B541710F02E
:1005A000CF96089501970895FC01918D828D98173B
:1005B00061F0A28DAE0FBF2FB11D5D968C91928D13
:1005C0009F5F9F73928F90E008958FEF9FEF089544
:1005D000FC01918D828D981731F0828DE80FF11D0D
:1005E000858D90E008958FEF9FEF0895FC01918D28
:1005F000228D892F90E0805C9F4F821B91098F7321
:100600009927089581E795E00E94F60221E0892B61
:1006100009F420E0822F089580E090E0892B29F0F2
:100620000E94020381110C9400000895FC01A48D26
:10063000A80FB92FB11DA35ABF4F2C91848D90E004
:1006400001968F739927848FA689B7892C93A089E7
:10065000B1898C91837080648C93938D848D981371
:1006600006C00288F389E02D80818F7D8083089504
:10067000EF92FF920F931F93CF93DF93EC0181E0F2
:10068000888F9B8D8C8D98131AC0E889F989808199
:1006900085FF15C09FB7F894EE89FF896083E889CC
:1006A000F98980818370806480839FBF81E090E0BE
:1006B000DF91CF911F910F91FF90EF900895F62E4B
:1006C0000B8D10E00F5F1F4F0F731127E02E8C8DE5
:1006D0008E110CC00FB607FCFACFE889F98980812A
:1006E00085FFF5CFCE010E941603F1CFEB8DEC0F05
:1006F000FD2FF11DE35AFF4FF0829FB7F8940B8F47
:10070000EA89FB8980818062CFCF0F931F93CF93BB
:10071000DF938C01D0E0C0E0F801EC0FFD1F649185
:10072000662341F081E795E00E943803892B11F0A0
:100730002196F2CFCE01DF91CF911F910F910895B5
:10074000CF93DF93EC01888D8823B9F0AA89BB8908
:10075000E889F9898C9185FD03C0808186FD0DC0F3
:100760000FB607FCF7CF8C9185FFF2CF808185FF14
:10077000EDCFCE010E941603E9CFDF91CF9108950E
:1007800090E0FC01EE56FE4F2491FC01E65FFB4F2A
:100790003491FC01EA50FC4FE491EE23C9F022238E
:1007A00039F0233001F1A8F4213019F1223029F178
:1007B000F0E0EE0FFF1FE451FC4FA591B4918FB70D
:1007C000F894EC91611126C030953E233C938FBF85
:1007D00008952730A9F02830C9F0243049F78091D6
:1007E00080008F7D03C0809180008F778093800090
:1007F000DFCF84B58F7784BDDBCF84B58F7DFBCF12
:100800008091B0008F778093B000D2CF8091B000FC
:100810008F7DF9CF3E2BDACFCF93DF9390E0FC01B1
:10082000E65FFB4F24918A509C4FFC018491882302
:10083000D1F090E0880F991FFC01EA55FE4FA59179
:10084000B491FC01E451FC4FC591D49161110EC0EB
:100850009FB7F8948C91E22FE0958E238C9328819A
:10086000E223E8839FBFDF91CF9108958FB7F8947B
:10087000EC91E22BEC938FBFF6CF8E3008F08E50C8
:100880008770806480937C0080917A00806480937C
:100890007A0080917A0086FDFCCF8091780090915B
:1008A000790008953FB7F8948091E8029091E902A9
:1008B000A091EA02B091EB0226B5A89B05C02F3F9C
:1008C00019F00196A11DB11D3FBFBA2FA92F982F76
:1008D0008827BC01CD01620F711D811D911D42E071
:1008E000660F771F881F991F4A95D1F708958F9239
:1008F0009F92AF92BF92CF92DF92EF92FF926B01E5
:100900007C010E9452044B015C01C114D104E1043A
:10091000F104B9F00E945204681979098A099B0907
:10092000683E73408105910580F321E0C21AD10829
:10093000E108F10888EE880E83E0981EA11CB11C26
:10094000E4CFFF90EF90DF90CF90BF90AF909F905B
:100950008F9008952FB7F8946091E4027091E502AA
:100960008091E6029091E7022FBF08958FB7F89427
:100970008091DD028FBF089561E0FC0184810E94B7
:10098000C0038091DC0281111092DC0208958EBDBB
:1009900000000DB407FEFDCF8EB508958FEF0C94C7
:1009A000C7040F931F93CF93DF93EC010E94AA0417
:1009B0008B010E94CE048F3F69F00E94AA04601B45
:1009C000710B6C177D07A8F380E0DF91CF911F9129
:1009D0000F91089581E0F9CF8CBD9DBD0895CF930F
:1009E000DF93EC018091DC02811109C081E08093EA
:1009F000DC0280910E0690910F060E94EC0460E0EC
:100A00008C81DF91CF910C94C0038F929F92AF9213
:100A1000BF92FF920F931F93CF93DF93EC01F62EBB
:100A200049015A018E81882389F08F8198859C0124
:100A30002F5F3F4F38872F838230924018F40E94F7
:100A4000CE04F3CFCE010E94BC041E82CE010E94D0
:100A5000EF048CE291E00E94D1048F2D80640E940B
:100A6000C70408E110E0D501C401002E04C0B6950A
:100A7000A795979587950A94D2F70E94C7040850C6
:100A80001109083F8FEF180771F785E9FF2021F062
:100A900028E087E8F2128FEF0E94C70410E00E945E
:100AA000CE048A8787FF04C01F3F11F01F5FF7CF76
:100AB000DF91CF911F910F91FF90BF90AF909F90CA
:100AC0008F900895AF92BF92CF92DF92EF92FF92F4
:100AD0000F931F93CF93DF93EC016901C801820F3D
:100AE000931F8130924050F58E81882379F0888160
:100AF0009981AA81BB8184179507A607B70731F4AE
:100B00008F819885C816D90608F042C0488359835A
:100B10006A837B838B85833039F089E0440F551FCE
:100B2000661F771F8A95D1F79A01AB0161E1CE016B
:100B30000E940505882389F083E08D83CE010E9401
:100B4000BC0480E0DF91CF911F910F91FF90EF9057
:100B5000DF90CF90BF90AF9008950E94AA045B01F0
:100B60000E94CE048A878F3F69F40E94AA046A1902
:100B70007B096D327140A0F38FE08D83CE010E941E
:100B8000BC04DCCF8E3F89F418861F8281E08E83FF
:100B90008F8198858C159D0550F40E94CE048F811D
:100BA0009885019698878F83F3CF8DE0E6CF670114
:100BB000E00EF11E0E94CE04F60181936F01EE1546
:100BC000FF05C1F78F819885080F191F18870F83BC
:100BD0008985882319F001151240A0F08E818823A1
:100BE00089F08F8198859C012F5F3F4F38872F8335
:100BF0008230924018F40E94CE04F3CFCE010E94BE
:100C0000BC041E8281E09ECFCF92DF92EF92FF92D2
:100C10000F93CF93DF93EC01690182E141155105F8
:100C20006105710599F08B85833039F089E0440FB7
:100C3000551F661F771F8A95D1F79A01AB0168E1AE
:100C4000CE010E940505882319F084E08D832DC014
:100C50008EEF0E94C70476018EEFD81AF7018191BA
:100C60007F010E94C704EC14FD04C1F78FEF0E94BE
:100C7000C7048FEF0E94C7040E94CE048A878F7139
:100C8000853071F4011116C0CE010E94BC0481E0D0
:100C9000DF91CF910F91FF90EF90DF90CF9008956B
:100CA00081E18D83CE010E94BC04CE010E94BC0470
:100CB00080E0EECF88E592E00E94D104811102C06D
:100CC00085E1C4CF20E030E0A9016DE0CE010E94B3
:100CD0000505882311F084E1B9CF0E94CE0481116B
:100CE000FACFD2CF0F934091DF025091E002609192
:100CF000E1027091E202411551056105710599F01B
:100D0000082F2BE633E080916B0590916C050E94D3
:100D10000406882349F01092DF021092E00210923C
:100D2000E1021092E20281E00F9108950F93CF93B8
:100D3000C82F8091DE02811105C0C1E08C2FCF91B8
:100D40000F910895409100015091010160910201BD
:100D5000709103010C2F2BE633E080916B0590918D
:100D60006C050E940406811102C0C0E0E7CFCC23CD
:100D700021F381E00E9472068823B9F31092DE020B
:100D8000DDCF8F929F92AF92BF92EF92FF920F931F
:100D90001F93CF934B015C01C42F80910001909170
:100DA0000101A0910201B091030188159905AA05DE
:100DB000BB0551F181E00E94960681110BC080E0D5
:100DC000CF911F910F91FF90EF90BF90AF909F90A8
:100DD0008F9008958BE6E82E83E0F82E00E012E075
:100DE00030E020E0B501A40180916B0590916C0585
:100DF0000E946205882319F38092000190920101FC
:100E0000A0920201B09203014091DE024C2B40936C
:100E1000DE0281E0D5CF8F929F92AF92BF92CF92A8
:100E2000DF92EF92FF92CF9320E136E030936C0592
:100E300020936B05882309F46DC040E060E070E00A
:100E4000CB010E94C10681110BC080E0CF91FF90C1
:100E5000EF90DF90CF90BF90AF909F908F900895CC
:100E6000809129058F7789F7809135059091360516
:100E7000A0913705B091380584369105A105B105DB
:100E800020F3C0903105D0903205E0903305F0900A
:100E90003405C114D104E104F104B9F240E0C70102
:100EA000B6010E94C106882381F280917603909159
:100EB00077038115924049F6A0917B03AA2329F27A
:100EC0006091790370917A036115710509F4BDCFC2
:100ED00020917803222309F4B8CFA0932E06209303
:100EE000200690E080E030E0E1E0F0E0C82FAF01C4
:100EF000082E02C0440F551F0A94E2F72417350745
:100F000069F041E0480F01968930910579F74093E7
:100F100029069BCFC12CD12C7601C0CF8093290606
:100F2000209181033091820350E040E0211531058A
:100F300041F420918F03309190034091910350919F
:100F40009203209321063093220640932306509368
:100F5000240646015701860E971EA11CB11C8092E3
:100F60002F0690923006A0923106B0923206E091A0
:100F70007C03F0917D03F0933506E0933406B0E0F6
:100F80000E945C31DC01CB01880D991DAA1DBB1D9F
:100F90008093360690933706A0933806B0933906AF
:100FA00025E0EE0FFF1F2A95E1F7E150FE4FEF2FEE
:100FB000FF27E6958E0F9F1FA11DB11D80932A0666
:100FC00090932B06A0932C06B0932D0680907E0361
:100FD00090907F03B12CA12C8114910441F4809056
:100FE0008B0390908C03A0908D03B0908E03C81A51
:100FF000D90AEA0AFB0AC80CD91CEA1CFB1C04C06B
:10100000F694E794D794C794CA95D2F7C092250670
:10101000D0922606E0922706F092280685EFC816A1
:101020008FE0D806E104F10428F48CE080933306C5
:1010300081E00CCF80E125EFC2162FEFD206E1044C
:10104000F104A0F38091970390919803A0919903E4
:10105000B0919A038093360690933706A093380692
:10106000B093390680E2E2CF4F925F926F927F9207
:101070008F929F92AF92BF92CF92DF92EF92FF92A8
:101080000F931F93CF93DF93EC014230510561051D
:10109000710590F480E0DF91CF911F910F91FF9047
:1010A000EF90DF90CF90BF90AF909F908F907F9008
:1010B0006F905F904F90089589859A85AB85BC8528
:1010C0000196A11DB11D84179507A607B70710F358
:1010D000CB88DC88ED88FE888F89803109F042C09A
:1010E000BB27A72F962F852F480159012A013B01C5
:1010F000C80ED91EEA1EFB1E8091000190910101CD
:10110000A0910201B0910301C816D906EA06FB06B8
:1011100099F58F898031C1F5B301A2015527662762
:101120007727440F551F45595C4FFA019182808201
:101130008091DE0281608093DE028A89823080F0B5
:101140008D819E81AF81B8858C0D9D1DAE1DBF1D0B
:101150008093DF029093E002A093E102B093E20259
:1011600081E099CFDB01CA01E7E0B695A795979595
:101170008795EA95D1F7B8CF40E0C701B6010E9444
:10118000C1068111C6CF86CFB301A2014F77552783
:1011900066277727440F551F440F551F45595C4F4D
:1011A000FA0180829182A282B382C2CF8F929F92F3
:1011B000AF92BF92CF92DF92EF92FF920F931F9365
:1011C000CF93DF93FC0181859285A385B485019639
:1011D000A11DB11D84179507A607B70770F480E01D
:1011E000DF91CF911F910F91FF90EF90DF90CF9003
:1011F000BF90AF909F908F90089583889488A58822
:10120000B6888789803189F5BB27A72F962F852F30
:10121000E9016A017B018F01BC01CD01680D791DD7
:101220008A1D9B1D8090000190900101A0900201F9
:10123000B090030186169706A806B90601F5F801D5
:101240008789803111F5DD24EE24FF24F601EE0FAD
:10125000FF1FE559FC4F80819181B0E0A0E08883B9
:101260009983AA83BB8381E0BBCFDB01CA01C7E0BE
:10127000B695A79597958795CA95D1F7C9CF40E0C0
:101280000E94C1068111DBCFAACFE894C7F8DD2404
:10129000EE24FF24F601EE0FFF1FEE0FFF1FE559AE
:1012A000FC4F80819181A281B381BF70D8CF4F92D2
:1012B0005F926F927F92AF92BF92CF92DF92EF9246
:1012C000FF920F931F93CF93DF9300D000D0CDB741
:1012D000DEB78C0149835A836B837C835901C12C0F
:1012E000D12C7601412C82E0582E612C712C498141
:1012F0005A816B817C819E012F5F3F4FC8010E9404
:10130000D608882339F1F8018585A301920104C02C
:10131000220F331F441F551F8A95D2F7DA01C901E6
:10132000C80ED91EEA1EFB1E49815A816B817C8141
:101330008789803111F188EF9FEFAFEFBFE0481749
:1013400059076A077B0798F2F501C082D182E282D1
:10135000F38281E00F900F900F900F90DF91CF916B
:101360001F910F91FF90EF90DF90CF90BF90AF90C3
:101370007F906F905F904F90089588EF9FEFA0E06F
:10138000B0E0DDCFCF93DF93FC012581222321F054
:1013900080E0DF91CF910895EC0180913306803198
:1013A00059F582E08583178A108E118E128E8091F6
:1013B000340690913506B0E0A0E025E0880F991F33
:1013C000AA1FBB1F2A95D1F7838B948BA58BB68B55
:1013D0008CE196E09C8F8B8F81E08C831E821F8234
:1013E000188619861A861B861C861D861E861F86F1
:1013F000188A198A1A8ACDCF803251F683E0858304
:101400004091360650913706609138067091390642
:10141000478B508F618F728F9F012D5E3F4F8CE104
:1014200096E00E9457098111D3CFB2CF8F929F923D
:10143000AF92BF92CF92DF92EF92FF920F931F93E2
:10144000CF93DF93EC018D8181110EC080E0DF919D
:10145000CF911F910F91FF90EF90DF90CF90BF90B1
:10146000AF909F908F9008950B891C892D893E899C
:10147000041715072607370748F34A015B01823036
:1014800031F48A869B86AC86BD8681E0E0CF8114EC
:101490009104A104B10449F41E821F8218861986A2
:1014A0001A861B861C861D86F0CF0A851B852C8517
:1014B0003D85EB8DFC8D858590E00996B901A801ED
:1014C0004150510961097109082E04C0769567954C
:1014D000579547950A94D2F775016401E1E0CE1A59
:1014E000D108E108F10804C0F694E794D794C794B2
:1014F0008A95D2F7C416D506E606F70620F0012B2A
:10150000022B032B11F58F89988DA98DBA8D8E83AF
:101510009F83A887B9878E010A5F1F4FC114D1042A
:10152000E104F10409F4ADCF4E815F8168857985CE
:1015300098018B8D9C8D0E94D60891E0C91AD10824
:10154000E108F1088111EACF81CFC41AD50AE60A71
:10155000F70AE1CF3F924F925F926F927F928F9204
:101560009F92AF92BF92CF92DF92EF92FF920F9332
:101570001F93CF93DF93CDB7DEB72C970FB6F894B8
:10158000DEBF0FBECDBF5C01DC015B968D909C90F1
:101590005C9716964D905D906D907C9019974114D4
:1015A00051046104710409F468C0BFEF4B1A5B0A6F
:1015B0006B0A7B0A312CF40181859285A385B48561
:1015C0009C01AD012F5F3F4F4F4F5F4F29873A87F7
:1015D0004B875C87730162011D821E821F82188601
:1015E000F40181859285A385B4852D813E814F814B
:1015F0005885281739074A075B0708F056C08985C0
:101600009A85AB85BC858C159D05AE05BF0550F44C
:1016100082E0C82ED12CE12CF12C92E0492E512CE5
:10162000612C712C9E012F5F3F4FB701A601C401B1
:101630000E94D6088823C9F189819A81AB81BC8137
:10164000892B8A2B8B2B09F1260137019FEF491A31
:10165000590A690A790A2D813E814F8158852F5F89
:101660003F4F4F4F5F4F2D833E834F8358873FEF50
:10167000C31AD30AE30AF30AB3CFF40140805180BE
:10168000628073803324339496CFC414D504E60467
:10169000F70409F70FEF1FEF2FEF3FE0B701A601A7
:1016A000C4010E943408811119C080E02C960FB645
:1016B000F894DEBF0FBECDBFDF91CF911F910F9188
:1016C000FF90EF90DF90CF90BF90AF909F908F9062
:1016D0007F906F905F904F903F900895D501169640
:1016E0004D915D916D917C91199741155105610561
:1016F000710539F097018601C4010E9434088823DE
:10170000A1F2D5011696CD92DD92ED92FC92199739
:10171000332051F0D701C6010196A11DB11DF4017E
:1017200080839183A283B383F5018789908DA18DF6
:10173000B28D892B8A2B8B2B39F48481C78AD08E6A
:10174000E18EF28E80688483F501848180628483D7
:1017500081E0ACCF1F93CF93DF93FC01258122233F
:10176000D1F1162FEC01848187FF2AC06685778529
:101770008089918941E00E94C106882361F1EA894C
:1017800080E2E89FF0011124E559FC4F309719F1F0
:101790008D81823040F48B899C89AD89BE89848F8C
:1017A000958FA68FB78F8F89988D938F828F8F8912
:1017B000988DA98DBA8DB58BA48B8C818F778C83F6
:1017C000111103C08C818F7E8C83812FDF91CF918B
:1017D0001F910C94960680E0DF91CF911F910895A0
:1017E000FF920F931F93CF93DF93EC018D81813094
:1017F00041F090E080E0DF91CF911F910F91FF9039
:1018000008958C8181FFF5CF82FD1BC000916B058F
:1018100010916C05C8010E94EF040E94CE04F82EBE
:10182000C8010E94BC048FEFF812E3CF8C8185FFC2
:101830001BC060E0CE010E94AA0B8C818F7D8C833F
:10184000D8CF4B895C896D897E898A859B85AC85DB
:10185000BD8584179507A607B707C1F2CE010E9480
:10186000160A8111D3CFC5CF4091DF025091E0021B
:101870006091E1027091E202452B462B472B21F04B
:1018800080E00E947206B5CF80618C832A853B85FB
:10189000317080E092E0821B930BADCFCF93DF934A
:1018A000EC0161E00E94AA0B882311F01D8281E007
:1018B000DF91CF9108952F923F924F925F926F9256
:1018C0007F928F929F92AF92BF92CF92DF92EF92D0
:1018D000FF920F931F93CF93DF9300D000D01F92FE
:1018E000CDB7DEB77C015B01342E5D83DC0115963C
:1018F0008C911597813009F0CEC014962C9021FE62
:10190000CAC022FCB4C0C32CDD8022947FE0272211
:101910002094B22DB1702B2ED7011A964D915D9166
:101920006D917C911D97C114D10409F428C15B9677
:101930008D919C915C97FC0174807A948A019B0143
:1019400069E036952795179507956A95D1F7702226
:101950008A011170711020C001151105E9F4169665
:101960004D915D916D917C911997411551056105DE
:10197000710509F099C057968D919D910D90BC917C
:10198000A02D0097A105B10509F0B0C0C7010E94C4
:10199000AA0A882309F47FC080E092E0801B910BA3
:1019A00046018C159D0508F44C01D7015B964D91BD
:1019B0005C915C9716968D919D910D90BC91A02D98
:1019C0000297A109B109FA01258504C0880F991F62
:1019D000AA1FBB1F2A95D2F7468557856089718952
:1019E000840F951FA61FB71F9C01AD01270D311D48
:1019F000411D511D29013A01811432E0930609F07D
:101A00007BC08091000190910101A0910201B091F1
:101A1000030184159505A605B70559F48FEF9FEFCF
:101A2000DC018093000190930101A0930201B09327
:101A30000301022D9501B301A20180916B059091E4
:101A40006C050E940406882331F19EEFB91AC8186C
:101A5000D908F70182859385A485B585880D991DE0
:101A6000A11DB11D82879387A487B58755CFF70144
:101A7000438954896589768982859385A485B5854E
:101A8000481759076A077B0709F43DCFC7010E9431
:101A9000160A811138CF81E090E0D70113969C930C
:101AA0008E93129780E007C09E012F5F3F4F0E94E8
:101AB000D608811102C090E079C089819A81AB81FA
:101AC000BC81F701238D348DF901278948EF5FEF41
:101AD00060E070E0203121F048EF5FEF6FEF7FE0D2
:101AE00084179507A607B70708F050CFF70186833C
:101AF0009783A087B18750CF0115110599F5D701BC
:101B00001A964D915D916D917C911D9753968D9193
:101B10009D910D90BC91A02D481759076A077B072E
:101B200008F181E00E949606882309F4B4CF409220
:101B300000015092010160920201709203018091B4
:101B4000DE0281608093DE02C80185599C4FD50179
:101B50009C01280D391DFC012E173F0759F04D91AE
:101B60004193FACF41E0C301B2010E94C106811145
:101B7000EBCF91CF281B390BA20EB31E68CFF70114
:101B800083899489A589B68984179507A607B7071D
:101B900038F48481438B548B658B768B8068848387
:101BA000F701848183FD1AC0832D9D810F900F90D2
:101BB0000F900F900F90DF91CF911F910F91FF9099
:101BC000EF90DF90CF90BF90AF909F908F907F90DD
:101BD0006F905F904F903F902F90089561E0C70104
:101BE0000E94AA0B882309F456CFDECFCF93DF9350
:101BF0001F92CDB7DEB7698341E050E0BE016F5F51
:101C00007F4F0E945B0C0F90DF91CF910895FC01F4
:101C1000DB0112968D919C911397938382838CE2C2
:101C200091E09183808314968C9114978483159608
:101C30008C911597858316964D915D916D917C9150
:101C4000199746835783608771871A964D915D91E6
:101C50006D917C911D9742875387648775871E9687
:101C60004D915D916D917C91519746875787608B1F
:101C7000718B52968C915297828B53964D915D91B8
:101C80006D917C915697438B548B658B768B5796D1
:101C90004D915D916D917C915A97478B508F618FDB
:101CA000728F5B968D919C91948F838F0895FC0128
:101CB000818D928D009719F061E00C94AA0B089524
:101CC000DC015996ED91FC913097B9F083899489A4
:101CD000A589B6894285538564857585841B950BD6
:101CE000A60BB70B811520E89207A105B10538F0C6
:101CF0008FEF9FE7A0E0B0E0089590E080E00895C6
:101D0000DC0159968D919C91009739F0DC01ED91A1
:101D1000FC910480F581E02D099490E080E0089525
:101D2000CF93DF93EC01E98DFA8D309749F481E090
:101D300090E09B838A8390E080E0DF91CF910895CB
:101D400013821282898D9A8D0E945B0CE98DFA8D27
:101D500022813381232B59F7F0CFCF93DF931F924A
:101D6000CDB7DEB76983DC01ED91FC910280F38190
:101D7000E02D41E050E0BE016F5F7F4F09950F906D
:101D8000DF91CF9108952F923F924F925F926F9281
:101D90007F928F929F92AF92BF92CF92DF92EF92FB
:101DA000FF920F931F93CF93DF9300D01F92CDB775
:101DB000DEB7FC018581811118C08FEF9FEF0F9076
:101DC0000F900F90DF91CF911F910F91FF90EF90A7
:101DD000DF90CF90BF90AF909F908F907F906F904B
:101DE0005F904F903F902F900895848180FFE5CFC2
:101DF000438954896589768982859385A485B585CB
:101E0000312C212C481759076A077B0719F0222427
:101E10002394312C6F012101CE0101963C01DF0199
:101E20001696BB83AA834114510409F4C5C0F60178
:101E300042855385648575854A01F1E09F22D6016C
:101E40005B968D919C915C978A019B01E9E03695A8
:101E5000279517950795EA95D1F71596EC91E230FD
:101E6000E9F5FC01628D738D848D958D600F711F76
:101E7000821F931FA12C22E0B22EA818B9084A1481
:101E80005B0408F45201F601248126FD04C0A1146C
:101E9000F2E0BF0671F40091000110910101209160
:101EA000020130910301061717072807390709F0C7
:101EB0005EC040E00E94C106882309F47ECFC401C1
:101EC00085599C4FD3019C012A0D3B1DFC012E1707
:101ED0003F0709F46CC041914D93F9CFDC01149692
:101EE000BC90BA94B0228114910479F4B1100DC061
:101EF000452B462B472B69F5F6018789908DA18DDF
:101F0000B28D86839783A087B187D6015B96ED91CA
:101F1000FC915C9716966D917D918D919C9119978E
:101F20006250710981099109258504C0660F771FE8
:101F3000881F991F2A95D2F7068517852089318930
:101F4000600F711F821F931F6B0D711D811D911DED
:101F500091CFD60116964D915D916D917C91199717
:101F60002A813B810E94D6088111CFCF26CF7301F1
:101F700085019401AB01BC0180916B0590916C05CA
:101F80000E946205882309F418CF6A0C7B1CF601B5
:101F900082859385A485B5858A0D9B1DA11DB11DE4
:101FA00082879387A487B5874A185B083CCF281B94
:101FB000390B620E731EEBCF2A94232809F0FDCE55
:101FC000898190E0FCCEFC01818D928D009711F00B
:101FD0000C94C30E8FEF9FEF08950F931F93CF9331
:101FE000DF93EC01898D9A8D10E000E0009799F065
:101FF0000E94C30E8C010F3F100769F0898D9A8DE6
:10200000FC014285538564857585415051096109FC
:1020100071090E94160AC801DF91CF911F910F919B
:102020000895DC0180E0615090F09D919827E92FA0
:10203000EF70F0E0EE59FE4F2491E92FE295EF703A
:10204000F0E0EE58FE4FE491822F8E27ECCF0895FA
:10205000DC012C911196ED91FC91F8948181822BF9
:1020600081839281322F30959323928387E090E091
:102070000197F1F781818323818383E290E00197C7
:10208000F1F790817894EFECF0E03197F1F792233B
:1020900081E009F480E00895FC0190810180F281E3
:1020A000E02D292F209560FF14C0F89482818223AF
:1020B00082838181892B8183A3E2B0E01197F1F7BC
:1020C0008281982B9283789487ED90E00197F1F7C5
:1020D0000895F8948281822382838181892B818370
:1020E000AFEFB0E01197F1F78281982B928378944B
:1020F0008FE090E0EBCFDF92EF92FF920F931F9370
:10210000CF93DF93EC01D62EE42E08E010E0FF24FD
:10211000F39461E08D2D8F2109F460E0CE010E94DF
:102120004C10FF0C01501109A1F7E11010C0F894F8
:10213000E981FA8191818881809589238183E98170
:10214000FA81928188818095892382837894DF91B6
:10215000CF911F910F91FF90EF90DF900895EF9234
:10216000FF920F931F93CF93DF938C017B0140E08D
:1021700065E50E947B10E70188E0E80EF11C69919B
:1021800040E0C8010E947B10CE15DF05C1F7DF914A
:10219000CF911F910F91FF90EF900895FC019081D6
:1021A0000180F281E02DF8948181292F20958223EE
:1021B000818378943DE743E050E0315029F1DA0122
:1021C0001197F1F780818923C1F3F89482818223EA
:1021D00082838181892B81837894ABE7B7E0119763
:1021E000F1F7F894818182238183A3E1B1E0119713
:1021F000F1F78081982381E009F080E07894E3E6AC
:10220000F6E03197F1F7089580E008956F927F929C
:102210008F929F92AF92BF92CF92DF92EF92FF92F6
:102220000F931F93CF93DF938C01EB018091C8062E
:102230009091C9060E94CE10882309F43FC0B801CE
:102240008091C8069091C9060E94AF1040E06EEBE5
:102250008091C8069091C9060E947B107E016E0194
:1022600089E0C80ED11C8E01A090C806B090C906A6
:1022700088E0882E912C712C66246394C5010E94FD
:10228000281081117628660CE1E08E1A9108B1F7CA
:10229000F80171928F01CE16DF0631F78091C806E2
:1022A0009091C9060E94CE10813041F4F7018191CE
:1022B0007F01811105C0E017F107C1F790E008C068
:1022C00068E0CE010E94111091E028852813F6CF16
:1022D000892FDF91CF911F910F91FF90EF90DF90A9
:1022E000CF90BF90AF909F908F907F906F90089508
:1022F0002091B902260F3327331F21323105ECF428
:1023000020914303FC0190E080E0243069F082E0FA
:102310000895A091B9022191AC0147565D4FA40FD9
:10232000B52FB11D2C930196861798F38091B902B1
:10233000680F6093B90280E0089581E008951092DB
:10234000430381E08093420310923D0361E082E108
:102350000E94C00361E083E10E94C003E9EBF0E06A
:1023600080818E7F808380818D7F808388E48093CD
:10237000B80085E48093BC000895CF93DF9391E08B
:10238000909398028823B9F0C091B800D091BA0018
:102390008091BC008A7B8093BC0060E082E10E9457
:1023A000C00360E083E10E94C0030E949F11D093AC
:1023B000BA00C093B800DF91CF910895E0916A030D
:1023C00080916903E81730F4F0E0E75BFC4F80810F
:1023D00090E008958FEF9FEF0895809169039091A9
:1023E0006A03891B990B0895CF92DF92EF92FF92B7
:1023F0000F931F93CF93DF937C01CB018A01209130
:102400001C03222389F0EB016B01C40ED51ECC15F1
:10241000DD0569F06991D701ED91FC910190F081A2
:10242000E02DC7010995F3CF642F0E947811C801F0
:10243000DF91CF911F910F91FF90EF90DF90CF90A0
:102440000895CF93DF931F92CDB7DEB769832091B4
:102450001C032223F9F020911903203258F021E0C7
:1024600030E0FC013383228390E080E00F90DF9125
:10247000CF91089580911A03E82FF0E0E750FD4FC7
:10248000998190838F5F80931A038093190381E071
:1024900090E0ECCF61E0CE0101960E947811F7CF79
:1024A00020916F05309170052817390771F49091CC
:1024B0006D0580916E05981741F0E0916D05F0E093
:1024C000E85AFD4F808190E008958FEF9FEF0895C7
:1024D000EF92FF920F931F93CF93DF93DC015C96F3
:1024E000ED90FC905D97E114F10479F481E090E0C7
:1024F00013969C938E93129790E080E0DF91CF919A
:102500001F910F91FF90EF9008955196ED91FC91DE
:10251000529750968C915097982F90950FB75E9642
:102520002C915E97122F127021FD6095F8942081F6
:10253000112319F1282B2083E7012197F1F728E0D7
:10254000462F50E0308160FF1AC0382B3083E701FE
:102550002197F1F7BA0175956795215089F71123F5
:1025600081F08081892380830FBF5C968D919C913F
:102570000197F1F781E090E0C1CF2923DCCF392327
:10258000E5CF9081892BEFCF20916F0530917005B9
:102590002817390771F480916E0520916D0590E040
:1025A000805C9F4F821B910960E470E00E94913231
:1025B000089590E080E0089520916F0530917005B6
:1025C00028173907B9F490916D0580916E05981719
:1025D00089F0E0916D05F0E0E85AFD4F808120918F
:1025E0006D0530E02F5F3F4F2F73332720936D052C
:1025F00090E008958FEF9FEF0895AF92BF92CF9232
:10260000DF92EF92FF920F931F93CF93DF935C01C2
:102610008B010E94AA046B017C01D0E0C0E08FEF27
:1026200096E00E94C412892BC1F08FEF96E00E94C1
:10263000DC12F501EC0FFD1F808311822196C0177B
:10264000D1076CF38FEF96E00E94C412892BA1F0A2
:102650008FEF96E00E94DC12F5CFC017D10794F7F8
:102660000E94AA046C197D098E099F09693873417B
:1026700081059105A0F2E6CF81E090E0DF91CF9156
:102680001F910F91FF90EF90DF90CF90BF90AF9090
:10269000089590E080E00895BF92CF92DF92EF928C
:1026A000FF920F931F93CF93DF93EC01B62EC72EAB
:1026B0008D85811105C0CE010E94CE1081110EC002
:1026C0001B861D861C8680E0DF91CF911F910F91A4
:1026D000FF90EF90DF90CF90BF90089540E060EFC3
:1026E000CE010E947B1001E0E12CD12C11E0CE0143
:1026F0000E942810F82ECE010E94281091E0F912B5
:1027000018C0813099F51134D8F2DB86D11002C09F
:1027100081E08D878B81882399F22396EB2DFC2D08
:10272000CF01089629912193E817F907D9F781E09D
:10273000CBCFEE2DF0E0F8120FC08B851817A0F468
:10274000DE01AE0FBF1F13968C91802379F4F12C1C
:10275000193008F41C87D12EEC0FFD1F8381902FB8
:102760009095892383830AC08113F1CFFE01EE0D7A
:10277000F11D8381802B8383FF24F3946F2DCE0181
:102780000E944C101F5F000F11F4E39401E087E0FA
:102790008E1508F0ACCFB7CF8F929F92AF92BF92B9
:1027A000CF92DF92EF92FF921F93CF93DF93D82FB8
:1027B000162F0E9452046B017C018091430381110A
:1027C00066C0C12F81E080934303809342039FEF53
:1027D0009093410310924003910F90933F03809395
:1027E0003E0380913E03DD0FD82BD0933E038091B2
:1027F0003D03813009F082C010923D030E945204D3
:102800006B017C0180913E038093BB008091450366
:1028100090914603A0914703B0914803892B8A2BDE
:102820008B2BA1F00E9452048090450390904603A8
:10283000A0904703B09048036C197D098E099F0949
:1028400086169706A806B90608F442C08091BC0017
:1028500083FDD8CF85EC8093BC000E9452046B01AD
:102860007C0180914303813009F44AC08091400388
:10287000811710F4C0914003ADE1B3E0E9E4F3E067
:1028800080E08C1751F19D9191938F5FFACF8091E9
:10289000450390914603A0914703B0914803892BCB
:1028A0008A2B8B2B09F489CF0E9452048090450318
:1028B00090904603A0904703B09048036C197D099F
:1028C0008E099F0986169706A806B90608F075CFE7
:1028D000809144030E94BD11C0E010926A03C0932E
:1028E00069038C2FDF91CF911F91FF90EF90DF90C4
:1028F000CF90BF90AF909F908F90089585EEABCF13
:102900008091450390914603A0914703B0914803FD
:10291000892B8A2B8B2B09F4A4CF0E945204809020
:10292000450390904603A0904703B09048036C196C
:102930007D098E099F0986169706A806B90608F034
:1029400090CFC6CFCF92DF92EF92FF920F931F935B
:10295000CF93DF93C091E40681E080931C03C09382
:102960001B0310921A031092190360E089E596E0A8
:102970000E942112D0911903D13208F092C00E9416
:1029800052046B017C0180914303811165C082E098
:102990008093430381E0809342038FEF8093410350
:1029A00010924003D0933F03E9EFF2E0ADE1B3E0D2
:1029B00080E0D813F5C010923E0380913E03CC0F07
:1029C000C82BC0933E0380913D03813009F0ECC0D9
:1029D00010923D030E9452046B017C0180913E03E2
:1029E0008093BB008091450390914603A0914703DB
:1029F000B0914803892B8A2B8B2B99F00E945204AB
:102A000000914503109146032091470330914803FC
:102A10006C197D098E099F090617170728073907C2
:102A2000E0F18091BC0083FDD9CF85EC8093BC00A0
:102A30000E9452046B017C0180914303823009F4AF
:102A4000B5C0809141038F3F61F180914103803295
:102A500041F18091410325C0809145039091460347
:102A6000A0914703B0914803892B8A2B8B2B09F443
:102A70008ACF0E9452040091450310914603209191
:102A80004703309148036C197D098E099F09061789
:102A900017072807390708F076CF809144030E9472
:102AA000BD1110921A031092190310921C03809109
:102AB000E4069091E5062091EF0668E070E0213091
:102AC00011F063E170E00E94CC130E948202982F03
:102AD00092959770CAE08F709C9F800D112480930F
:102AE000E6060E948202982F929597708F709C9FA5
:102AF000800D11248093E7060E948202982F929500
:102B000093708F709C9F800D11248093E8060E9423
:102B10008202982F92959F708F709C9F800D112438
:102B20008093EC060E948202982F92959F708F707E
:102B30009C9F800D11248093E9060E94820284FBF1
:102B4000992790F98F709C9F800D11248093EA063D
:102B50000E948202982F92959F708F709C9F800D8B
:102B600011248093EB068FEF9FE79093EE068093FE
:102B7000ED068091EF06813009F045C00E94820287
:102B800084FF38C087FF34C08EEF8093FC06DF914E
:102B9000CF911F910F91FF90EF90DF90CF9008950C
:102BA00091919D938F5F05CF85EE40CF8091450336
:102BB00090914603A0914703B0914803892B8A2B3B
:102BC0008B2B09F439CF0E945204009145031091D8
:102BD000460320914703309148036C197D098E0903
:102BE0009F09061717072807390708F025CF55CF83
:102BF0008FEFCBCF83709927019711F480E1C5CF78
:102C00001092FC06C4CF1092F00680E88093F6067E
:102C10000E948202282F221F2227221F9091F00655
:102C2000922B9093F006982F929597708F709C9F9F
:102C3000800D11248093F1060E9482029C01B6E06F
:102C400035952795BA95E1F722709091F006292BDA
:102C50002093F006982F929597708F709C9F800D0F
:102C600011248093F2060E9482029C01D5E03595E2
:102C70002795DA95E1F724709091F006292B20939F
:102C8000F006982F929593708F709C9F800D112461
:102C90008093F3060E9482029C0114E035952795EB
:102CA0001A95E1F728703091F006232B322F3F70F0
:102CB00009F4ACC02093F006982F92959370CAE067
:102CC0008F709C9F800D11248093F4060E948202D5
:102CD0009C0176E0359527957A95E1F722709091E1
:102CE000F606292B2093F606982F929597708F70F1
:102CF0009C9F800D11248093F7060E9482029C0104
:102D0000E5E035952795EA95E1F724709091F60670
:102D1000292B2093F606982F929593708F709C9F85
:102D2000800D11248093F8060E9482029C01F4E039
:102D300035952795FA95E1F728703091F606232B03
:102D4000322F3E7009F46AC02093F606982F9E71C8
:102D50008F70890F8093F9060E94820282FF69C0FA
:102D60009EEF9093FC0680FF61C09091F006906208
:102D70009093F00681FF62C08091F6068062809396
:102D8000F6060E948202982F991F9927991F909307
:102D9000FD0683FB992790F99093FE0681FB992706
:102DA00090F99093FA0681708093F5060E94820252
:102DB00087FD46C08093FB060E948202EC010E94C0
:102DC00082029E01220F331F220F331F2C7F33708C
:102DD00056E0959587955A95E1F783709927822B50
:102DE000932BC7FD2FC09093EE068093ED062091A4
:102DF000ED063091EE0649E1429FC001439F900DE0
:102E000011249093EE068093ED06C1CEAC0155954A
:102E10004795559547954071242B4CCFAC0155955E
:102E20004795559547954071242B8ECF1092F0060B
:102E3000A1CF88718093FC061092F00680E89FCFA6
:102E40008150B8CF9C6F0197CECFCF92DF92EF9297
:102E5000FF921F93CF93DF93EC0180E2689FF00114
:102E60001124E559FC4F9385917161F0842F827490
:102E700049F080E0DF91CF911F91FF90EF90DF90BC
:102E8000CF900895142F6A8B8091000190910101D9
:102E9000A0910201B09103018E879F87A88BB98B07
:102EA000C488D588F12CE12C7601DD24CC24CF8A8E
:102EB000D88EE98EFA8E828D938DB0E0A0E0AC01C1
:102EC000BD014C295D296E297F294F8B588F698F51
:102ED0007A8F83858871B1F4848D958DA68DB78D99
:102EE0008B8B9C8BAD8BBE8B81E08D831F701C8385
:102EF0001E821F82188619861A861B861C861D86CE
:102F000081E0B8CF803109F0B4CF9E012D5E3F4FF4
:102F10008B8D9C8D0E945709882309F4AACF84E0E9
:102F2000E4CFFB0101900020E9F73197AF01461B88
:102F3000570BDC01ED91FC910280F381E02D0994A7
:102F4000CF93DF93FC01448155816081718181E7DA
:102F500095E00E949802EC016AE671E081E795E055
:102F60000E9491178C0F9D1FDF91CF910895CF93F1
:102F7000DF930E948503EC016AE671E081E795E04A
:102F80000E9491178C0F9D1FDF91CF9108958F9212
:102F90009F92AF92BF920F931F93CF93DF93CDB7C2
:102FA000DEB7A1970FB6F894DEBF0FBECDBF19A252
:102FB000423008F44AE08E010F5D1F4F842E912CA1
:102FC000B12CA12CA50194010E94A532E62FB901D4
:102FD000CA01EA3004F5E05DD801EE938D01232BA0
:102FE000242B252B79F790E080E0109729F0BD0184
:102FF00081E795E00E949117A1960FB6F894DEBF85
:103000000FBECDBFDF91CF911F910F91BF90AF90B9
:103010009F908F900895E95CDFCFCF92DF92EF927F
:10302000FF92CF93DF936B017C016DE281E795E026
:103030000E943803EC0166277727CB016C197D09C4
:103040008E099F094AE00E94C7178C0F9D1FDF91D0
:10305000CF91FF90EF90DF90CF900895CF93DF93C3
:10306000BC01990F880B990B97FF0EC00E940D1899
:10307000EC016AE671E081E795E00E9491178C0F00
:103080009D1FDF91CF9108954AE00E94C717F0CFAE
:10309000CF93DF93EC010E943B026AE070E080E096
:1030A00090E00E9477040E943B02BE018FEF96E001
:1030B000DF91CF910C9491175F926F927F928F92D4
:1030C0009F92AF92BF92CF92DF92EF92FF920F93B7
:1030D0001F93CF93DF938B016A010E944818F80178
:1030E00001900020E9F731973F01601A710A0E94B0
:1030F000AA044B015C01D0E0C0E0F12CE12C8FEF81
:1031000096E00E94C412892BB1F08FEF96E00E94E6
:10311000DC12582E682F81E795E00E943803F801F1
:10312000EC0FFD1F8081851511F0883509F521967A
:103130006C167D0601F10E94AA04681979098A09B2
:103140009B09C616D706E806F906C8F690E080E0A7
:10315000DF91CF911F910F91FF90EF90DF90CF9073
:10316000BF90AF909F908F907F906F905F900895E9
:10317000D0E0C0E0DDCF8FEF96E00E94C412892B33
:1031800029F08FEF96E00E94DC12F5CF81E090E00D
:10319000DFCF0F931F93CF93DF93EC010E94911722
:1031A0008C016AE671E0CE010E949117800F911F99
:1031B000DF91CF911F910F910895EF92FF920F939E
:1031C0001F93CF93DF93CDB7DEB7C05AD1090FB6A7
:1031D000F894DEBF0FBECDBF7B018A01BC01CE01DA
:1031E00001960E940B2BB701CE018F579F4F0E9473
:1031F0000B2BA801BE016F577F4FCE0101960E9495
:103200005C18C056DF4F0FB6F894DEBF0FBECDBFBF
:10321000DF91CF911F910F91FF90EF900895CF9381
:10322000DF93EC0188819981009711F00E947D3332
:10323000198218821D821C821B821A82DF91CF9113
:103240000895FC0180819181009711F00C947D33E9
:1032500008950F931F93CF93DF938C01EB01FC0133
:10326000808191810097E1F0688179816115710514
:10327000A9F0428153812C813D814217530770F0A0
:103280000E94E4348C819D81F801958384831D82A2
:103290001C82DF91CF911F910F9108950E947D3381
:1032A00088819981F801918380838A819B819383AE
:1032B00082838C819D8195838483198218821B82ED
:1032C0001A82E5CF0F931F93CF93DF93EC01888190
:1032D0009981009759F02A813B812617370730F0F2
:1032E00081E0DF91CF911F910F9108958B016F5F66
:1032F0007F4F0E940634009759F0998388831B837F
:103300000A832C813D81232B59F7FC011082E8CFE1
:1033100080E0E7CFEF92FF920F931F93CF93DF935D
:103320006115710541F480E0DF91CF911F910F91FC
:10333000FF90EF90089541155105B1F07B01EC012C
:103340000C811D81040F151FB8010E94621988238A
:1033500051F3288139818C819D81B701820F931FA0
:103360000E94E4341D830C8381E0DECFCF93DF9392
:10337000EC01FB0144815581608171810E948A19B1
:10338000811103C0CE010E940F19CE01DF91CF91B0
:103390000895FB0101900020E9F73197AF01461B2A
:1033A000570B0C948A19FB0144815581608171810E
:1033B0000C948A19EF92FF920F931F93CF93DF9390
:1033C000EC017B018A01BA010E94621981110BC0D4
:1033D000CE010E940F19CE01DF91CF911F910F9165
:1033E000FF90EF9008951D830C83B7018881998128
:1033F0000E94E434F0CFEF92FF920F931F93CF938C
:10340000DF93CDB7DEB7A1970FB6F894DEBF0FBE3E
:10341000CDBF7C01CB01BA01F7011182108213826A
:103420001282158214828E010F5F1F4F22E044E04A
:103430000E94ED2A0097C9F0FC0101900020E9F7F5
:103440003197AF01481B590BBC01C7010E94DA1923
:10345000A1960FB6F894DEBF0FBECDBFDF91CF911E
:103460001F910F91FF90EF900895C7010E940F19CF
:10347000EFCFEF92FF920F931F93CF93DF93CDB7D0
:10348000DEB729970FB6F894DEBF0FBECDBF8C0113
:10349000862FF80111821082138212821582148203
:1034A0004AE09E012F5F3F4F7901B90190E00E94F1
:1034B000202BF70101900020E9F73197AF014E1959
:1034C0005F09B701C8010E94DA1929960FB6F8946E
:1034D000DEBF0FBECDBFDF91CF911F910F91FF9047
:1034E000EF900895FC0111821082138212821582DE
:1034F0001482FB0101900020E9F73197AF01461BD0
:10350000570B0C94DA193F924F925F926F927F9211
:103510008F929F92AF92BF92CF92DF92EF92FF92E3
:103520000F931F93CF93DF93CDB7DEB72B970FB6D3
:10353000F894DEBF0FBECDBF7C01FE013196CE01F7
:103540000C966F0130E23193E817F907E1F7DA01E1
:1035500030E087E09D91B92E992309F43CC09E325A
:10356000F1F48A30C9F480E02B960FB6F894DEBFF0
:103570000FBECDBFDF91CF911F910F91FF90EF90C4
:10358000DF90CF90BF90AF909F908F907F906F9083
:103590005F904F903F90089538E08AE0DBCFE2E8FB
:1035A000F1E04491442321F031969413FACFDBCF1C
:1035B0008317C8F24FED490F4E35A8F64FE9490F72
:1035C0004A3118F440EEB42EB90EF601E30FF11DA6
:1035D000B0823F5FBFCF8981803229F2322E8B01CA
:1035E000DB015B968D919C915C97F701948F838FA3
:1035F00016961D921D921D921C921997FB01128620
:10360000138614861586F80182859385A485B58571
:10361000438954896589768984179507A607B70772
:1036200008F04DC025E0B695A795979587952A9502
:10363000D1F7F82FFF70AF2ED80115968C918230FC
:1036400008F491CFC8010E94C30E97FD8CCFF801FA
:1036500082859385A485B5854F96A11DB11D82876E
:103660009387A487B587F0E2AF9EB0011124655916
:103670007C4F6115710509F476CFDB018C918823AD
:1036800041F0853E09F062C0BB2029F0BB24B39411
:10369000BACFB1100EC0F701A28A809100019091BB
:1036A0000101A0910201B091030186879787A08B49
:1036B000B18BDB018C918111E9CFBB24B394832DB5
:1036C0008271823109F04FCFBB2009F44DC0F70160
:1036D000668577858089918941E00E94C1068823AB
:1036E00009F441CFD70152968C91B0E28B9FC00173
:1036F000112485599C4F009709F435CFFC013A9667
:1037000026E1DF011D922A95E9F72BE0F601DC01A5
:1037100001900D922A95E1F721E238E2FC01318B0C
:10372000208B40E058E057874687338B228B318FC0
:10373000208F578B468B81E00E949606882309F4E0
:1037400012CF432DD70152966C910AC04BE050E046
:10375000C6010E94C334892B09F055CF432D6A2D31
:10376000C7010E94251700CFF8018581823009F436
:10377000FACEC8010E94AA0A882309F4F4CED8011F
:103780005B96ED91FC915C9716968D909D90AD9017
:10379000BC901997B2E08B1A9108A108B1088585F1
:1037A00004C0880C991CAA1CBB1C8A95D2F786857C
:1037B0009785A089B189880E991EAA1EBB1E848197
:1037C00024013501480E511C611C711C84149504A0
:1037D000A604B70409F1E1E04E1A51086108710826
:1037E00081E00E949606882309F4BDCEEBE6F3E063
:1037F00011928BE695E08E179F07D1F7409200015A
:103800005092010160920201709203018091DE02E8
:1038100081608093DE02DACFD8015B96ED91FC9156
:10382000258580E092E0A0E0B0E004C0880F991FF9
:10383000AA1FBB1F2A95D2F7F801438954896589CD
:103840007689840F951FA61FB71F838B948BA58B3A
:10385000B68BD70152961C928BE693E04FCFEF9236
:10386000FF920F931F93CF93DF93EC017B018A01AB
:103870001B821A8288EE93E0A0E0B0E08C839D83E7
:10388000AE83BF838AE491E0998388838DE190E0E1
:103890000E94E1329A8F898F009779F02DE1F7012C
:1038A000DC0101900D922A95E1F74CE050E0B8015F
:1038B000CE010C960E94EB34188EDF91CF911F91B0
:1038C0000F91FF90EF9008950C94463185ED809311
:1038D000BC008091450390914603A0914703B091AD
:1038E00048030796A11DB11D23E0B695A7959795AE
:1038F00087952A95D1F72091BC0024FD03C0109232
:103900004303089540914503509146036091470356
:1039100070914803452B462B472B69F30097A1056F
:10392000B10541F025E32A95F1F700000197A109BF
:10393000B109E1CF809144030C94BD111F920F9205
:103940000FB60F9211242F933F934F935F936F9372
:103950007F938F939F93AF93BF93EF93FF9381E7F1
:1039600095E00E941603FF91EF91BF91AF919F9157
:103970008F917F916F915F914F913F912F910F9018
:103980000FBE0F901F9018951F920F920FB60F92B7
:1039900011242F938F939F93EF93FF93E0918105D1
:1039A000F09182058081E0918705F091880582FD84
:1039B0001BC0908180918A058F5F8F7320918B054A
:1039C000821741F0E0918A05F0E0EF58FA4F958FA9
:1039D00080938A05FF91EF919F918F912F910F9086
:1039E0000FBE0F901F9018958081F4CF1F920F92F9
:1039F0000FB60F9211242F933F938F939F93AF9302
:103A0000BF938091E4029091E502A091E602B0910B
:103A1000E7023091E30223E0230F2D3758F501969A
:103A2000A11DB11D2093E3028093E4029093E5026F
:103A3000A093E602B093E7028091E8029091E90238
:103A4000A091EA02B091EB020196A11DB11D8093F5
:103A5000E8029093E902A093EA02B093EB02BF91CF
:103A6000AF919F918F913F912F910F900FBE0F902B
:103A70001F90189526E8230F0296A11DB11DD2CFE5
:103A80001F920F920FB60F9211242F933F934F93D3
:103A90005F936F937F938F939F93AF93BF93EF93B6
:103AA000FF938091B900887F803609F44AC0F0F511
:103AB000883209F4A7C018F5803109F49BC0B8F426
:103AC000882309F4F9C0883009F494C0FF91EF917C
:103AD000BF91AF919F918F917F916F915F914F9126
:103AE0003F912F910F900FBE0F901F901895883126
:103AF00009F488C0803251F78093410314C08034A8
:103B000009F49DC040F48033B9F38833F9F680930B
:103B1000410385ECB0C0803509F485C0883509F4CF
:103B200096C0883499F60E94661CD0CF883909F473
:103B30008CC038F5883729F050F4883611F080377A
:103B400029F683E0809343031092DB0257C0883844
:103B500009F47BC0803919F0803809F0B7CF809123
:103B6000DB02803208F071C0E091DB0281E08E0F51
:103B70008093DB028091BB00F0E0E554FD4F808331
:103B80003DC0803B39F0E0F4803A09F479C0883ACE
:103B900009F09CCF84E0809343031092BA02109204
:103BA000B902E091EE02F091EF0209958091B9021D
:103BB00081110FC081E08093B9021092990209C06F
:103BC000803C09F4A6CF883C09F4A3CF883B09F0D8
:103BD0007DCFE091BA0281E08E0F8093BA02F0E0CF
:103BE000E756FD4F80818093BB009091BA0280918F
:103BF000B90229C080913E038093BB0085EC80937D
:103C0000BC0064CF9091400380913F03981758F512
:103C1000E091400381E08E0F80934003F0E0E35E8B
:103C2000FC4F8081E9CFE091400381E08E0F8093CB
:103C300040038091BB00F0E0E35EFC4F80839091F5
:103C4000400380913F039817C8F285E8D8CFE091F0
:103C5000400381E08E0F809340038091BB00F0E031
:103C6000E35EFC4F80838091420381115CCF81E051
:103C700080933D0384EA8093BC001092430326CFD7
:103C800085EC8093BC00109243038091DB0280326C
:103C900030F4E091DB02F0E0E554FD4F10826091DA
:103CA000DB0270E0E091EC02F091ED028BEB92E030
:103CB00009951092DB020ACF1092410334CF1F9274
:103CC0000F920FB60F9211242F933F934F935F9350
:103CD0006F937F938F939F93AF93BF93EF93FF93D4
:103CE000E0916F05F0917005309749F0A685B78592
:103CF0008585968D91FF14C09C918923A1F4FF9135
:103D0000EF91BF91AF919F918F917F916F915F9153
:103D10004F913F912F910F900FBE0F901F901895CC
:103D20009C91892361F7A389B4899C9185898095A9
:103D300089238C93868997890197F1F7608D718D1E
:103D4000A685B785558538E020E0CB010197F1F7CE
:103D5000822F90E095958795282F4C91452309F067
:103D60002068315091F7868D81FD209580916E05F8
:103D700090E001968F73992730916D05381799F06F
:103D8000A0916E05B0E0A85ABD4F2C9380936E05AC
:103D9000828D938D0197F1F7A389B4898C919589D0
:103DA000892B8C93ACCF868D8160868FF1CFCF939A
:103DB000109274051092730588EE93E0A0E0B0E0D5
:103DC0008093750590937605A0937705B093780559
:103DD0002AE131E0309372052093710525EC30E043
:103DE00030937E0520937D0524EC30E030938005F0
:103DF00020937F0520EC30E03093820520938105ED
:103E000021EC30E0309384052093830522EC30E0F0
:103E1000309386052093850526EC30E030938805A5
:103E20002093870510928A0510928B0510928C05BD
:103E300010928D0520E520930E0610920F06109229
:103E40001506109216061092190610921B0642E0F3
:103E500050E060E070E040931C0650931D066093B4
:103E60001E0670931F061092330610923D061092A4
:103E70003C062CE231E030933B0620933A06109248
:103E80003F0610925C0610925B0680935D0690934D
:103E90005E06A0935F06B093600628E331E030939E
:103EA0005A06209359061092020710920107809338
:103EB000030790930407A0930507B09306078CE5CA
:103EC00091E0909300078093FF06109216071092DE
:103ED0001507109218071092170710921A071092E0
:103EE000190710921C0710921B0760911D076E7F27
:103EF0006D7F60931D076695617081E068278AE099
:103F00000E94C00361E08AE00E940C04E4E1F4E056
:103F1000E491E0930F07E0E0F4E0E491F0E0EE0FCD
:103F2000FF1FE451FC4F859194919093110780936A
:103F3000100760E089E00E940C0480911D0781FD5C
:103F400004C061E089E00E94C003C9E0C0930B0790
:103F5000E3E1F4E0E491E0930C07EFEFF3E0E491A8
:103F6000F0E0EE0FFF1FEE51FC4F8591949190937E
:103F70000E0780930D078DE991E090931C078093C5
:103F80001B072DEB30E030931607209315072BE924
:103F900031E030931807209317072CE231E030937B
:103FA0001A07209319072091680021602093680068
:103FB0002BE630E0309313072093120722E0209382
:103FC00014070197F1F70E943B0288E090E090937C
:103FD0001F0780931E071092E6061092E7061092C4
:103FE000E8061092E9061092EA061092EB0610928B
:103FF000EC068FE097E29093EE068093ED0683E067
:104000008093EF061092F0061092F1061092F206DD
:104010001092F3061092F4061092F50680E8809351
:10402000F6061092F7061092F8061092F906109212
:10403000FA061092FB068EEF8093FC061092FD06A6
:104040001092FE0688E690E09093E5068093E406E1
:1040500060E082E00E940C04ECE0F4E0E491E09384
:10406000D606E8EFF3E0E491F0E0EE0FFF1FEE512B
:10407000FC4F859194919093D8068093D706109227
:10408000E1061092E3061092E2061092E00610920A
:10409000DF061092DE061092DD061092DC0610920A
:1040A000DB061092DA061092D9061092D50610920D
:1040B000D4061092C00686ED96E09093C9068093D0
:1040C000C8061092C6061092C7061092BF06C0938B
:1040D000C20681E08093C3068093C4068093C50620
:1040E000109298061092990610929A0610929B06CA
:1040F00080E090E0A0E8BFE380939C0690939D064B
:10410000A0939E06B0939F068093A0069093A1066D
:10411000A093A206B093A3068093A4069093A5064D
:10412000A093A606B093A7061092BE061092A8060A
:104130001092A9061092AA061092AB0680E090E0B9
:10414000A8ECB1E48093AC069093AD06A093AE06C4
:10415000B093AF066CE671E082E996E00E94721AB5
:104160006CE671E08CE896E00E94721A6CE671E0F1
:1041700086E896E00E94721A6CE671E080E896E0AC
:104180000E94721A109268061092670688EE93E0F9
:10419000A0E0B0E08093690690936A06A0936B0656
:1041A000B0936C068AE491E090936606809365066E
:1041B00010927F0610927E0610927106CF9108959C
:1041C000CF93DF93CDB7DEB7C156D1400FB6F89489
:1041D000DEBF0FBECDBF789484B5826084BD84B548
:1041E000816084BD85B5826085BD85B5816085BDF2
:1041F00080916E00816080936E00109281008091AA
:104200008100826080938100809181008160809331
:104210008100809180008160809380008091B10056
:1042200084608093B1008091B00081608093B00081
:1042300080917A00846080937A0080917A00826015
:1042400080937A0080917A00816080937A008091D7
:104250007A00806880937A001092C100E091810515
:10426000F091820582E08083E0917D05F0917E05EA
:104270001082E0917F05F09180058FEC8083109291
:104280008905E0918505F091860586E08083E091BF
:104290008305F0918405808180618083E0918305AE
:1042A000F0918405808188608083E0918305F0919E
:1042B0008405808180688083E0918305F091840586
:1042C00080818F7D808310926A031092690310921F
:1042D0001A03109219030E949F1185E992E09093AE
:1042E000EF028093EE0286E992E09093ED028093D4
:1042F000EC026DE671E081E795E00E94C918E0915B
:10430000C806F091C9061386158614861286118692
:104310001086178216821582148213821092C606A6
:104320001092C7062E0121E8420E511C11E0B20185
:104330008091C8069091C9060E944C13882309F405
:1043400075C067E0C2010E941110D20117969C91BE
:1043500017978913ECCF8091C6068F5F8093C606AE
:104360008C91883231F008F047C0803111F08232F0
:10437000F1F68091C7068F5F8093C7068091BF06D4
:10438000811126C08091C8069091C9060E94CE1066
:10439000B2018091C8069091C9060E94AF1040E01A
:1043A00064EB8091C8069091C9060E947B108091B1
:1043B000C8069091C9060E942810082F8091C8064F
:1043C0009091C9060E94CE10011102C01093BF0641
:1043D000F20180818031D9F0BE016F5F7F4FC20151
:1043E0000E940611882331F08D818F33D9F058F463
:1043F0008F31D1F080E00EC08B3309F4BACF823414
:1044000009F095CFB6CF8F3521F08F3799F78CE033
:1044100001C08BE09091C206981708F088CF809376
:10442000C20685CF8AE0F6CF89E0F4CF8AE090E03B
:104430000E94641C8093A0068BE090E00E94641CA4
:104440008093A1068CE090E00E94641C8093A206F9
:104450008DE090E00E94641C8093A3068AE090E0C7
:104460000E94641C8F3FA9F58BE090E00E94641CC1
:104470008F3F79F58CE090E00E94641C8F3F49F5F6
:104480008DE090E00E94641C8F3F19F580E090E081
:10449000A0E8BFE38093A0069093A106A093A20694
:1044A000B093A30660E08AE090E00E944E316091F4
:1044B000A1068BE090E00E944E316091A2068CE054
:1044C00090E00E944E316091A3068DE090E00E9442
:1044D0004E318EE090E00E94641C8093A4068FE031
:1044E00090E00E94641C8093A50680E190E00E9409
:1044F000641C8093A60681E190E00E94641C809376
:10450000A7068EE090E00E94641C8F3FA9F58FE023
:1045100090E00E94641C8F3F79F580E190E00E945A
:10452000641C8F3F49F581E190E00E94641C8F3F3D
:1045300019F580E090E0A0E8BFE38093A406909393
:10454000A506A093A606B093A70660E08EE090E0D3
:104550000E944E316091A5068FE090E00E944E319E
:104560006091A60680E190E00E944E316091A7061E
:1045700081E190E00E944E318091A0069091A106C9
:10458000A091A206B091A30680939C0690939D06ED
:10459000A0939E06B0939F0680913F06882321F04A
:1045A0008AE396E00E944E0C10921B0610921906A8
:1045B000109216061092150684E0809314060E944D
:1045C000AA048B0161E0809114060E940C0461E052
:1045D000809114060E94C003FFB6F8948091F00207
:1045E000811127C0E0E0F4E08491E4E1F4E09491EB
:1045F000E82FF0E0EE0FFF1FEA55FE4FA591B491B2
:10460000EC91E92321F461E08AE00E94C00361E0BB
:104610008AE00E940C048CB580618CBD8CB58064EE
:104620008CBD61E08DE00E940C0461E08BE00E9493
:104630000C048091F0028F5F8093F002FFBE82E550
:1046400080930E0610920F0680910E0690910F0631
:104650000E94EC04FAE0FF2E8FEF0E94C704FA9448
:10466000F110FACF80E196E00E94EF0420E030E004
:10467000A90160E080E196E00E940505F82E809394
:104680001A06F1E08F17A9F00E94AA04601B710BB3
:10469000613D774058F381E08093150680E196E014
:1046A0000E94BC0467E771E081E795E00E94C918A9
:1046B000FFCF2AEA31E040E050E068E080E196E098
:1046C0000E94050582FF2AC0F0921B0680911B06FE
:1046D000C12CD12C7601823029F4C12CD12CE12CB3
:1046E00070E4F72E20E030E0A90167E380E196E076
:1046F0000E940505A701960169E280E196E00E940B
:10470000050580931A068823D1F00E94AA04601B35
:10471000710B613D774030F388E0BECFE4E0FE2EC0
:104720000E94CE0480931A06FA94F110F9CF8A3AC7
:1047300011F082E0B1CF82E080931B06C7CF809159
:104740001B068230D1F420E030E0A9016AE380E169
:1047500096E00E940505882311F086E09DCF0E9417
:10476000CE04807C803C19F483E080931B060E9479
:10477000CE040E94CE040E94CE0480E196E00E9406
:10478000BC0480E580930E0610920F0681E00E9423
:104790000B07882309F4BCC08AE396E00E94C20993
:1047A000882309F47FCF60E088E00E94C00360EDB9
:1047B00077E080E090E00E94770461E088E00E946A
:1047C000C00380EB91E00E94B7173E0153EE651ADB
:1047D0005EEF750ACE018F5A9F4FC85ADE4F9983FC
:1047E0008883C855D1408E010F5F1F4F1E019DEF7A
:1047F000290E311CDE01AF57BF4FC65ADE4FB983B9
:10480000A883CA55D1400E94A21440E45FE162E946
:1048100073E087E692E00E94DD1868E873E180E0CB
:1048200090E00E94770448E853E16AEB71E08DEB79
:1048300091E00E94DD18D12C68EE862E63E0962E62
:10484000A12CB12C40EE5EE263E472E08EE492E0D3
:104850000E94DD18019709F462C040EE5EE268E351
:1048600072E08EE492E00E94DD18019709F457C0CF
:1048700040ED57E060E873E08FE292E00E94DD18BF
:1048800040ED57E060E873E086E292E00E94DD18B8
:10489000D394C501B4010E947704B8EE8B0EB3E047
:1048A0009B1EA11CB11CEAE0DE12CCCF61E080911E
:1048B0001E070E940C0461E080911E070E94C00345
:1048C00068EC70E080E090E00E94770460E0809106
:1048D0001E070E94C00360ED77E080E090E00E9438
:1048E000770461E080911E070E94C00368EB7BE0C3
:1048F00080E090E00E9477048FEF96E00E94C4125F
:10490000892B09F45AC08FEF96E00E94DC12F4CF95
:1049100080E00E940B07882309F4C4CE3DCF40EB12
:1049200056E360E873E086E092E00E94DD18F12C27
:10493000E12C892B19F442E0E42EF12C69ED73E0AF
:10494000C2010E940B2B5F924F928CEE91E09F93DD
:104950008F931F930F930E943A2B40E157E26AE036
:1049600071E0C8010E945C180F900F900F900F909B
:104970000F900F90892B19F433E0E32EF12C40E1D6
:1049800057E261ED71E08DED91E00E94DD18892B19
:10499000F9F4FAE0DF16E1F0D39440E157E260E881
:1049A00073E082EC91E00E94DD18F12CE12C892B60
:1049B00031F724E0E22EF12CE2CF48E853E16AEB34
:1049C00071E08DEB91E00E94DD18EE24E394F12C70
:1049D00040E45FE162E973E089E592E00E94DD185E
:1049E000892B19F497E0E92EF12C8AEC93E00E94D0
:1049F0008503C7010E942E1864EF71E080E090E00B
:104A00000E9477048CE792E00E94B717F801119298
:104A1000C85ADE4F48815981C855D140E417F5077F
:104A2000B1F77201C2014E96F2011192E817F9072F
:104A3000E1F76EE672E0C8010E940B2BC8010E94EC
:104A4000481860E570E0C8010E94FD120197C1F4AA
:104A50006AE370E0C8010E94D9349C01201B310B2D
:104A6000FC013496285E3F4FCF01801B910B8217CB
:104A7000930730F48191D7018D937D011C92F4CF7F
:104A8000B201C1010E94721AB10182E996E00E944E
:104A90002919C1010E94211982E996E00E94A017FC
:104AA00064EF71E080E090E00E9477048DE892E08E
:104AB0000E94B7178AE0E82EF12C8091C8069091E9
:104AC000C9060E94CE1040E06CEC8091C80690911F
:104AD000C9060E947B104091BF0664E48091C8061D
:104AE0009091C9060E947B108091C306882311F122
:104AF000E091C2068091C406882309F4DBC380914B
:104B0000BF068111D7C30E94AA044B015C018091AA
:104B1000C8069091C9060E942810813059F00E9461
:104B2000AA04681979098A099B096E3E72408105B9
:104B3000910568F3E091C806F091C90613861586C1
:104B400014861286118610861782168215821482A8
:104B50001382B2018091C8069091C9060E944C133D
:104B60008111D0C3812C912CAEEFAA2EA2ECBA2ECB
:104B70008092F5029092F602A092F702B092F802AB
:104B800064EF71E080E090E00E94770421E0E21A97
:104B9000F10809F092CFB501A401C8010E94FB19E8
:104BA000B8018CE896E00E942919C8010E942119D9
:104BB0006EE871E0C8010E94721A6CE876E0C801E4
:104BC0000E94B6190E94A017C8010E94211964EF23
:104BD00071E080E090E00E94770481EA92E00E9418
:104BE000B7174AE0C42ED12CF12CE12C8EE00E94A4
:104BF0003D04E80EF91E6AE070E080E090E00E945B
:104C0000770441E0C41AD10889F7C7016AE070E06F
:104C10000E949132072E000C880B990B0E942930BC
:104C200020E030E040EA5BE30E9488309B01AC0169
:104C300060E070E080E290E40E94AD312CEE31E55E
:104C400048E35EE30E941A3220E030E040EE50E498
:104C50000E94AE31AB01BC01C8010E94FB19B80132
:104C600086E896E00E942919C8010E94211966E988
:104C700071E0C8010E94721A66E876E0C8010E94DD
:104C8000B6190E94A017C8010E94211964EF71E0B3
:104C900080E090E00E9477048EEA92E00E94B717CD
:104CA0008AE090E0C45ADE4F99838883CC55D14086
:104CB0008091F5029091F602A091F702B091F8026E
:104CC000C25ADE4F88839983AA83BB83CE55D140D5
:104CD0008FE00E943D04BC01990F880B990B0E9444
:104CE000293020E030E040E85AE30E94883020E09C
:104CF00030E44CE955E40E94883020E030E04AE797
:104D000054E40E94883020E030E04DE454E40E94F6
:104D10001A3220E030E048E453E40E941A326B017A
:104D20007C01C092B006D092B106E092B206F09239
:104D3000B30620919C0630919D0640919E065091AD
:104D40009F060E9488304B015C0120E030E040E289
:104D500050E40E948C3218160CF025C38091A406F2
:104D60009091A506A091A606B091A70680939C06F7
:104D700090939D06A0939E06B0939F0620919C065B
:104D800030919D0640919E0650919F06C701B60145
:104D90000E9488306B017C0120E030E048EC51E457
:104DA000C25ADE4F688179818A819B81CE55D1407C
:104DB0000E94AD3120E53DE847E95CE30E94883080
:104DC00020E030E040E85FE30E94AE319B01AC019F
:104DD000C701B6010E941A326B017C01C09298068D
:104DE000D0929906E0929A06F0929B06C092F10248
:104DF000D092F202E092F302F092F40264EF71E0DA
:104E000080E090E00E947704C45ADE4FA881B98107
:104E1000CC55D1401197C45ADE4FB983A883CC55E5
:104E2000D140AB2B09F044CFB701A601C8010E94C5
:104E3000FB19B80180E896E00E942919C8010E9478
:104E400021196CE971E0C8010E94721A60E876E0ED
:104E5000C8010E94B6190E94A017C8010E9421191A
:104E600068EE73E080E090E00E9477040E94A21454
:104E700040E050E0BA01C1010E94FB19F101F0814C
:104E8000C45ADE4FF883CC55D140D1011196BC9164
:104E9000C25ADE4FB883CE55D14090908C06809098
:104EA0008D06B0908006A0908106D0908606C090B6
:104EB00087066CE671E0C3010E94721A6091E806F1
:104EC000C8010E94391AB801C3010E94D319C80150
:104ED0000E94211962EA71E0C3010E94C919609120
:104EE000E706C8010E94391AB801C3010E94D3190C
:104EF000C8010E94211962EA71E0C3010E94C91928
:104F00006091E606C8010E94391AB801C3010E94E7
:104F1000D319C8010E942119F301F080E1806CE6E9
:104F200071E0CE01835C9E4F0E94721A6091EB0685
:104F3000C8010E94391AB801CE01835C9E4F0E94BD
:104F4000D319C8010E94211964EA71E0CE01835C83
:104F50009E4F0E94C9196091EA06C8010E94391A41
:104F6000B801CE01835C9E4F0E94D319C8010E94F4
:104F7000211964EA71E0CE01835C9E4F0E94C91939
:104F80006091E906C8010E94391AB801CE01835C1C
:104F90009E4F0E94D319C8010E942119C25ADE4FA8
:104FA000F881CE55D140FF93C45ADE4F2881CC55AD
:104FB000D1402F938F929F92AF92BF92CF92DF9268
:104FC000EF92FF92C25CDE4F8881CE53D1408F9327
:104FD000C35CDE4F8881CD53D1408F93809193067F
:104FE0008F93809192068F9386EA91E09F938F939F
:104FF000C55ADE4F4881CB55D1404F93C65ADE4F3C
:105000005881CA55D1405F930E94FA34CE01835C27
:105010009E4F0E942119C3010E942119C1010E94C3
:105020002119BE016F577F4FC8010E94721A6DECA3
:1050300071E0C1010E94721AB801C1010E94B61943
:105040000E94A017C1010E942119C8010E942119C4
:105050001C821B823CE2E32E31E0F32EFA82E982CD
:105060001E82C8010E94C209B801C3010E94070E36
:10507000D10113961C921E9212971196FC92EE92F9
:1050800015961C920FB6F894DEBF0FBECDBFD301AC
:1050900015968C9181119AC1C15CDE4F19821882DC
:1050A000CF53D14088EE93E0A0E0B0E0CF5BDE4F7D
:1050B00088839983AA83BB83C154D1408AE491E059
:1050C000C35CDE4F99838883CD53D140CA5ADE4FEB
:1050D00019821882C655D140C75BDE4F1882C95469
:1050E000D140C15CDE4F88819981CF53D1409093EC
:1050F000680680936706CF5BDE4F88819981AA811D
:10510000BB81C154D1408093690690936A06A093F5
:105110006B06B0936C06CB5BDE4F88819981AA81C8
:10512000BB81C554D14080936D0690936E06A093C9
:105130006F06B0937006ADE3B1E0AC0FBD1F1C96D7
:10514000E1E7F6E08D91819326E0EE37F207D1F7A3
:10515000CA5ADE4FE881F981C655D140F0937F06E7
:10516000E0937E06309709F453C18581882309F4C2
:105170004FC165ED71E081E795E00E949117BE0196
:105180006F577F4F85E696E00E94C91880917E0692
:1051900090917F06009761F00E944E0C80917E06F0
:1051A00090917F060E947D3310927F0610927E06BA
:1051B0006CEE71E081E795E00E94C91840ED57E080
:1051C00062E973E088E293E00E94DD1889E092E0F2
:1051D0009F938F938FE093E09F938F931F930F93F1
:1051E0000E943A2B40ED57E063E171E0C8010E9454
:1051F0005C1848E050E066E073E089E092E00E94CD
:10520000122B0F900F900F900F900F900F90892BF3
:1052100009F001C187EF92E040ED57E062E973E0E9
:105220000E94DD1840ED57E062E973E08DEB92E0FB
:105230000E94DD18C65ADE4FE881F981CA55D14077
:1052400001900020E9F73197C65ADE4F4881598115
:10525000CA55D140E41BF50B87E28F9380E18F9311
:10526000FF93EF938CE693E09F938F933F922F925F
:105270000E943A2B63E673E0CE01835C9E4F0E944E
:105280000B2B48E55BE1BE01635C7E4FC1010E94D0
:105290005C180FB6F894DEBF0FBECDBF8FEF96E05F
:1052A0000E94C412892B09F4B9C08FEF96E00E94C6
:1052B000DC12F4CFE9508EEE92E0E33038F4F0E007
:1052C000EE0FFF1FE35FFE4F808191814C01990F2C
:1052D000AA08BB088091C006882329F060E080916D
:1052E000C1060E94C003C501B4010E9477048091E9
:1052F000C006882309F41ECC61E08091C1060E949B
:10530000C00318CC67E0C2010E941110F20197811E
:10531000891328CCB801C2010E940611882309F420
:1053200021CC6A8170E0762F6627770F770F770F91
:105330002981F8E02F9F90011124262B372BD201D1
:105340008C918031E1F468856623C9F070E08F812B
:10535000FB01E81BF109CF019695982F88279795B7
:1053600087950E949132CB018097B901E3E0660FE7
:10537000771FEA95E1F760789C01260F371F2138E7
:10538000F4EE3F070CF4EECBB901330F880B990B09
:105390000E94293020E030E040E05CE30E94883049
:1053A0004B015C01E5CB20E030E040E050E4C5017A
:1053B000B4010E94223087FFE1CC8091A006909139
:1053C000A106A091A206B091A306D0CC27E140E0AF
:1053D00052E0B301C1010E94831A882309F45CCE14
:1053E000C3010E944E0CF101438954896589768975
:1053F000C1010E94160AB101C8010E94070E40E0D7
:1054000052E0B801CE01835C9E4F0E942F1C69CEF2
:1054100062EF71E0CFCE88EE92E0FECECE018F57E4
:105420009F4F0E94481840E157E26CE473E082E528
:1054300093E00E94DD182DE0E22EF12C019709F097
:1054400054C06EE373E0C1010E940B2BC1010E94A6
:1054500048187801F8011192C65ADE4F48815981E7
:10546000CA55D1404E175F07B1F7D3011C92119670
:105470001C9260E870E0C8010E94FD12019799F546
:1054800090E080E0D7012D917D012B3749F59C01FB
:1054900001968F37910519F02115310599F3FE0119
:1054A000EF57FF4F4FE750E0CA0162916D3711F09F
:1054B00090E080E04150510910F00097A9F3D80125
:1054C000A20FB31FF301821B930B02969F012619B3
:1054D00037092817390738F42D9121931082F6CF18
:1054E00030E020E0D5CFF12CE12C8EEB93E00E9450
:1054F0008503C7010E942E18EF28F1F5B30181E75B
:1055000095E00E94C91883EA93E00E94850340EA6F
:105510005FE060E873E083E893E00E94DD18F12C1F
:10552000E12C892B19F496E0E92EF12C48E853E19F
:1055300062E973E085E993E00E94DD18892B19F494
:105540008CE0E82EF12CB70190E080E04AE00E9468
:10555000C71760EE73E984E090E00E94770480E072
:1055600090E0892B09F44FC90E940203882309F4B3
:105570003AC90E9400002EC985EB93E00E94850382
:10558000BDCF80E896E00E94211986E896E00E944F
:1055900021198CE896E00E94211982E996E00E9488
:1055A00021198CE591E0909300078093FF0680918C
:1055B0006F05909170058F5F964071F4E09112072E
:1055C000F09113079081809114078095892380833F
:1055D0001092700510926F050895EF920F931F932C
:1055E000CF93DF93E80134E047FD34E1042E000C53
:1055F000550B57FF03C0519541955109E32E022FDA
:10560000242FAE010E94372DCE01DF91CF911F9143
:105610000F91EF900895FB01DC0105900D920020A1
:10562000E1F70895FB01DC014150504030F08D91CD
:105630000590801919F40020B9F7881B990B08957B
:10564000BB27FB015527AA27880F991FAA1FA4175C
:1056500010F0A41B83955051B9F7A05DAA3308F050
:10566000A95DA193009779F7B111B1931192CB0184
:105670000C94842FAEE0B0E0E0E4FBE20C947531D2
:105680000D891E898EE08C831A8309838FEF9FE733
:105690009E838D83AE01475E5F4F6F89788DCE010B
:1056A00001960E945D2B2F813885020F131FF80190
:1056B00010822E96E4E00C949131ABE0B0E0E3E68A
:1056C000FBE20C9467317C013B018A01FC011782EB
:1056D0001682838181FFC8C1CE0101965C01F7016A
:1056E0009381F30193FD859193FF81913F0188237D
:1056F00009F453C1853239F493FD859193FF81916B
:105700003F01853229F4B70190E00E94942FE7CF42
:10571000912C212C312CFFE1F31538F08B3211F153
:1057200090F4803209F1833229F137FC3CC020ED3E
:10573000280F2A3050F536FE20C08AE0989E200DB2
:105740001124922E06C08D3291F0803371F7689447
:1057500030F8F30193FD859193FF81913F01811111
:10576000DACF21C0689431F8689432F8F2CF6894A7
:1057700033F8EFCF689434F8ECCFEAE02E9E200D9A
:105780001124222E689435F8E4CF8E3229F436FCA9
:1057900004C1689436F8DDCF8C3619F4689437F874
:1057A000D8CF8836B1F2982F9F7D95549330E0F092
:1057B0008336A1F18337C1F1833509F063C0280135
:1057C000F2E04F0E511CF801C080D180692D70E0CD
:1057D00036FC02C06FEF7FEFC6010E946E2F4C01B6
:1057E000689437F882010AC00C5F1F4FFFE3F9830A
:1057F00088248394912C6501E89437F833FE2DC0FA
:10580000522C8114910471F5552009F468CFB70129
:1058100080E290E00E94942F5A94F6CFF8018081A4
:1058200089830E5F1F4FE4CF2801F2E04F0E511C19
:10583000F801C080D180692D70E036FC02C06FEFA6
:105840007FEFC6010E94792F4C018201D5CFB701AD
:1058500080E290E00E94942F2A942814190409F001
:10586000B0F7CECFF60137FC859137FE81916F01FD
:10587000B70190E00E94942F51105A94F1E08F1AD2
:105880009108BFCF843619F0893609F077C0F80146
:1058900037FE6BC060817181828193810C5F1F4FE5
:1058A000F32DFF763F2E97FF09C090958095709558
:1058B00061957F4F8F4F9F4F689437F82AE030E013
:1058C000A5010E94C42FC82ECA188C2C432C36FE6A
:1058D0000CC0E89440F8C91440F434FE05C032FC12
:1058E00003C0F32DFE7E4F2E892C44FE95C0FE0191
:1058F000EC0DF11D8081803309F087C0242D297EB5
:10590000422E842D8870582E43FC95C040FE8FC0D7
:105910009C2C821418F42C0C922C981844FE91C0E4
:10592000B70180E390E00E94942F42FE09C088E70F
:1059300090E041FE02C088E590E0B7010E94942FFC
:10594000C91408F48AC0CA94D12C9FEFC91AD90A85
:10595000CA0CDB1CF60182916F01B70190E00E9436
:10596000942FAC14BD04B1F74FCF60817181072E25
:10597000000C880B990B0E5F1F4F92CFD32CE8942D
:10598000D4F82AE030E0853739F1232D297FD22E53
:105990008F3601F148F48835A9F0F70186819781A7
:1059A0002B96E2E10C948331803749F08837A9F7D0
:1059B000D4FE02C06894D2F820E130E00DC06894B3
:1059C000D4F8F6CF34FE03C0822F8660D82E20E1B3
:1059D00032E002C028E030E0F801D7FE0FC060815D
:1059E0007181828193810C5F1F4FA5010E94C42F9A
:1059F000C82ECA183D2CE89437F867CF60817181B2
:105A000090E080E00E5F1F4FF0CF42FC02C0839415
:105A100078CF8394839475CF842D867809F471CFE1
:105A2000F6CFB70180E290E00E94942F8394821415
:105A3000C0F3512C73CF522C5818821408F46ECF37
:105A4000F8CF842D867809F47BCF8BE241FE80E28B
:105A500047FC8DE2B70190E071CFB70180E390E0A1
:105A60000E94942F9A946CCF8FEF9FEF99CFA9E06B
:105A7000B0E0EDE3FDE20C946D316A01F22EB02E40
:105A8000102FFBE3AF2EA01608F41BE31F5F012FBE
:105A900027E0AE014F5F5F4F0E94962EBC018981C7
:105AA000982F9970913009F43FC09BE2E1FC04C04B
:105AB0009E2D9170E0FC3AC05E2D5071E82FE87089
:105AC00083FF46C084E0911101C083E0EF2DE81B05
:105AD0008F1508F0E0E0D6018E2F20E2552351F11A
